{
  "contractName": "Fund",
  "abi": [
    {
      "inputs": [
        {
          "internalType": "uint256",
          "name": "amount",
          "type": "uint256"
        },
        {
          "internalType": "address",
          "name": "creater",
          "type": "address"
        },
        {
          "internalType": "string",
          "name": "cname",
          "type": "string"
        },
        {
          "internalType": "string",
          "name": "desc",
          "type": "string"
        }
      ],
      "stateMutability": "nonpayable",
      "type": "constructor"
    },
    {
      "inputs": [],
      "name": "createrAddress",
      "outputs": [
        {
          "internalType": "address payable",
          "name": "",
          "type": "address"
        }
      ],
      "stateMutability": "view",
      "type": "function"
    },
    {
      "inputs": [],
      "name": "createrName",
      "outputs": [
        {
          "internalType": "string",
          "name": "",
          "type": "string"
        }
      ],
      "stateMutability": "view",
      "type": "function"
    },
    {
      "inputs": [],
      "name": "currentBalance",
      "outputs": [
        {
          "internalType": "uint256",
          "name": "",
          "type": "uint256"
        }
      ],
      "stateMutability": "view",
      "type": "function"
    },
    {
      "inputs": [],
      "name": "description",
      "outputs": [
        {
          "internalType": "string",
          "name": "",
          "type": "string"
        }
      ],
      "stateMutability": "view",
      "type": "function"
    },
    {
      "inputs": [
        {
          "internalType": "uint256",
          "name": "",
          "type": "uint256"
        }
      ],
      "name": "donators",
      "outputs": [
        {
          "internalType": "string",
          "name": "contributorName",
          "type": "string"
        },
        {
          "internalType": "uint256",
          "name": "contributedAmount",
          "type": "uint256"
        }
      ],
      "stateMutability": "view",
      "type": "function"
    },
    {
      "inputs": [],
      "name": "goal",
      "outputs": [
        {
          "internalType": "uint256",
          "name": "",
          "type": "uint256"
        }
      ],
      "stateMutability": "view",
      "type": "function"
    },
    {
      "inputs": [],
      "name": "totalContribution",
      "outputs": [
        {
          "internalType": "uint256",
          "name": "",
          "type": "uint256"
        }
      ],
      "stateMutability": "view",
      "type": "function"
    },
    {
      "inputs": [],
      "name": "totalContributors",
      "outputs": [
        {
          "internalType": "uint256",
          "name": "",
          "type": "uint256"
        }
      ],
      "stateMutability": "view",
      "type": "function"
    },
    {
      "inputs": [
        {
          "internalType": "string",
          "name": "name",
          "type": "string"
        }
      ],
      "name": "donate",
      "outputs": [],
      "stateMutability": "payable",
      "type": "function"
    },
    {
      "inputs": [
        {
          "internalType": "uint256",
          "name": "value",
          "type": "uint256"
        }
      ],
      "name": "checkout",
      "outputs": [],
      "stateMutability": "nonpayable",
      "type": "function"
    },
    {
      "inputs": [],
      "name": "getDetails",
      "outputs": [
        {
          "internalType": "uint256",
          "name": "",
          "type": "uint256"
        },
        {
          "internalType": "uint256",
          "name": "",
          "type": "uint256"
        },
        {
          "internalType": "uint256",
          "name": "",
          "type": "uint256"
        },
        {
          "internalType": "address",
          "name": "",
          "type": "address"
        },
        {
          "internalType": "string",
          "name": "",
          "type": "string"
        },
        {
          "internalType": "string",
          "name": "",
          "type": "string"
        }
      ],
      "stateMutability": "view",
      "type": "function"
    },
    {
      "inputs": [
        {
          "internalType": "uint256",
          "name": "index",
          "type": "uint256"
        }
      ],
      "name": "getDonaterDetails",
      "outputs": [
        {
          "internalType": "string",
          "name": "",
          "type": "string"
        },
        {
          "internalType": "uint256",
          "name": "",
          "type": "uint256"
        }
      ],
      "stateMutability": "view",
      "type": "function"
    }
  ],
  "bytecode": "0x60806040523480156200001157600080fd5b506040516200120e3803806200120e833981810160405260808110156200003757600080fd5b810190808051906020019092919080519060200190929190805160405193929190846401000000008211156200006c57600080fd5b838201915060208201858111156200008357600080fd5b8251866001820283011164010000000082111715620000a157600080fd5b8083526020830192505050908051906020019080838360005b83811015620000d7578082015181840152602081019050620000ba565b50505050905090810190601f168015620001055780820380516001836020036101000a031916815260200191505b50604052602001805160405193929190846401000000008211156200012957600080fd5b838201915060208201858111156200014057600080fd5b82518660018202830111640100000000821117156200015e57600080fd5b8083526020830192505050908051906020019080838360005b838110156200019457808201518184015260208101905062000177565b50505050905090810190601f168015620001c25780820380516001836020036101000a031916815260200191505b50604052505050826000806101000a81548173ffffffffffffffffffffffffffffffffffffffff021916908373ffffffffffffffffffffffffffffffffffffffff1602179055508360028190555081600190805190602001906200022892919062000253565b5080600390805190602001906200024192919062000253565b50476005819055505050505062000302565b828054600181600116156101000203166002900490600052602060002090601f016020900481019282601f106200029657805160ff1916838001178555620002c7565b82800160010185558215620002c7579182015b82811115620002c6578251825591602001919060010190620002a9565b5b509050620002d69190620002da565b5090565b620002ff91905b80821115620002fb576000816000905550600101620002e1565b5090565b90565b610efc80620003126000396000f3fe6080604052600436106100a75760003560e01c8063b5aebc8011610064578063b5aebc8014610318578063ce845d1d146103d3578063da07082e146103fe578063f251fc8c146104b9578063fb9b4ab8146104e4578063fbbf93a01461053b576100a7565b80630dcf4b8f146100ac57806340193883146100d75780634c9ba8521461010257806360bc7ce81461013d5780637284e416146101cd578063ac62f5661461025d575b600080fd5b3480156100b857600080fd5b506100c161067f565b6040518082815260200191505060405180910390f35b3480156100e357600080fd5b506100ec610685565b6040518082815260200191505060405180910390f35b34801561010e57600080fd5b5061013b6004803603602081101561012557600080fd5b810190808035906020019092919050505061068b565b005b34801561014957600080fd5b506101526107fb565b6040518080602001828103825283818151815260200191508051906020019080838360005b83811015610192578082015181840152602081019050610177565b50505050905090810190601f1680156101bf5780820380516001836020036101000a031916815260200191505b509250505060405180910390f35b3480156101d957600080fd5b506101e2610899565b6040518080602001828103825283818151815260200191508051906020019080838360005b83811015610222578082015181840152602081019050610207565b50505050905090810190601f16801561024f5780820380516001836020036101000a031916815260200191505b509250505060405180910390f35b34801561026957600080fd5b506102966004803603602081101561028057600080fd5b8101908080359060200190929190505050610937565b6040518080602001838152602001828103825284818151815260200191508051906020019080838360005b838110156102dc5780820151818401526020810190506102c1565b50505050905090810190601f1680156103095780820380516001836020036101000a031916815260200191505b50935050505060405180910390f35b6103d16004803603602081101561032e57600080fd5b810190808035906020019064010000000081111561034b57600080fd5b82018360208201111561035d57600080fd5b8035906020019184600183028401116401000000008311171561037f57600080fd5b91908080601f016020809104026020016040519081016040528093929190818152602001838380828437600081840152601f19601f820116905080830192505050505050509192919290505050610a00565b005b3480156103df57600080fd5b506103e8610b13565b6040518082815260200191505060405180910390f35b34801561040a57600080fd5b506104376004803603602081101561042157600080fd5b8101908080359060200190929190505050610b19565b6040518080602001838152602001828103825284818151815260200191508051906020019080838360005b8381101561047d578082015181840152602081019050610462565b50505050905090810190601f1680156104aa5780820380516001836020036101000a031916815260200191505b50935050505060405180910390f35b3480156104c557600080fd5b506104ce610bff565b6040518082815260200191505060405180910390f35b3480156104f057600080fd5b506104f9610c05565b604051808273ffffffffffffffffffffffffffffffffffffffff1673ffffffffffffffffffffffffffffffffffffffff16815260200191505060405180910390f35b34801561054757600080fd5b50610550610c2a565b604051808781526020018681526020018581526020018473ffffffffffffffffffffffffffffffffffffffff1673ffffffffffffffffffffffffffffffffffffffff1681526020018060200180602001838103835285818151815260200191508051906020019080838360005b838110156105d85780820151818401526020810190506105bd565b50505050905090810190601f1680156106055780820380516001836020036101000a031916815260200191505b50838103825284818151815260200191508051906020019080838360005b8381101561063e578082015181840152602081019050610623565b50505050905090810190601f16801561066b5780820380516001836020036101000a031916815260200191505b509850505050505050505060405180910390f35b60045481565b60025481565b3373ffffffffffffffffffffffffffffffffffffffff166000809054906101000a900473ffffffffffffffffffffffffffffffffffffffff1673ffffffffffffffffffffffffffffffffffffffff1614610730576040517f08c379a000000000000000000000000000000000000000000000000000000000815260040180806020018281038252602a815260200180610e9d602a913960400191505060405180910390fd5b80471015610789576040517f08c379a000000000000000000000000000000000000000000000000000000000815260040180806020018281038252602e815260200180610e6f602e913960400191505060405180910390fd5b6000809054906101000a900473ffffffffffffffffffffffffffffffffffffffff1673ffffffffffffffffffffffffffffffffffffffff166108fc829081150290604051600060405180830381858888f193505050501580156107f0573d6000803e3d6000fd5b504760058190555050565b60018054600181600116156101000203166002900480601f0160208091040260200160405190810160405280929190818152602001828054600181600116156101000203166002900480156108915780601f1061086657610100808354040283529160200191610891565b820191906000526020600020905b81548152906001019060200180831161087457829003601f168201915b505050505081565b60038054600181600116156101000203166002900480601f01602080910402602001604051908101604052809291908181526020018280546001816001161561010002031660029004801561092f5780601f106109045761010080835404028352916020019161092f565b820191906000526020600020905b81548152906001019060200180831161091257829003601f168201915b505050505081565b6007818154811061094457fe5b9060005260206000209060020201600091509050806000018054600181600116156101000203166002900480601f0160208091040260200160405190810160405280929190818152602001828054600181600116156101000203166002900480156109f05780601f106109c5576101008083540402835291602001916109f0565b820191906000526020600020905b8154815290600101906020018083116109d357829003601f168201915b5050505050908060010154905082565b6064341015610a77576040517f08c379a000000000000000000000000000000000000000000000000000000000815260040180806020018281038252601f8152602001807f4d696e696d756d20636f6e747269627574696f6e20697320313030205765690081525060200191505060405180910390fd5b346004540160048190555047600581905550610a91610daf565b604051806040016040528083815260200134815250905060078190806001815401808255809150506001900390600052602060002090600202016000909190919091506000820151816000019080519060200190610af0929190610dc9565b506020820151816001015550506006600081548092919060010191905055505050565b60055481565b6060600060078381548110610b2a57fe5b906000526020600020906002020160000160078481548110610b4857fe5b906000526020600020906002020160010154818054600181600116156101000203166002900480601f016020809104026020016040519081016040528092919081815260200182805460018160011615610100020316600290048015610bef5780601f10610bc457610100808354040283529160200191610bef565b820191906000526020600020905b815481529060010190602001808311610bd257829003601f168201915b5050505050915091509150915091565b60065481565b6000809054906101000a900473ffffffffffffffffffffffffffffffffffffffff1681565b600080600080606080600254600654476000809054906101000a900473ffffffffffffffffffffffffffffffffffffffff1660036001829250818054600181600116156101000203166002900480601f016020809104026020016040519081016040528092919081815260200182805460018160011615610100020316600290048015610cf85780601f10610ccd57610100808354040283529160200191610cf8565b820191906000526020600020905b815481529060010190602001808311610cdb57829003601f168201915b50505050509150808054600181600116156101000203166002900480601f016020809104026020016040519081016040528092919081815260200182805460018160011615610100020316600290048015610d945780601f10610d6957610100808354040283529160200191610d94565b820191906000526020600020905b815481529060010190602001808311610d7757829003601f168201915b50505050509050955095509550955095509550909192939495565b604051806040016040528060608152602001600081525090565b828054600181600116156101000203166002900490600052602060002090601f016020900481019282601f10610e0a57805160ff1916838001178555610e38565b82800160010185558215610e38579182015b82811115610e37578251825591602001919060010190610e1c565b5b509050610e459190610e49565b5090565b610e6b91905b80821115610e67576000816000905550600101610e4f565b5090565b9056fe52657175657374656420616d6f756e74206973206d6f7265207468616e2063757272656e742062616c616e63652e546869732066756e6374696f6e2063616e2062652063616c6c6564206f6e6c79206279204f776e65722ea264697066735822122062a42a43019ad83186a75c72e74700268c4ac02a12043bd2af623dcc7512fd7664736f6c63430006080033",
  "immutableReferences": {},
  "source": "// solium-disable linebreak-style\r\npragma solidity >=0.6.0 <0.7.0;\r\n\r\n\r\ncontract FundFactory{\r\n    address[] public activeFunds;\r\n\r\n    function createFund(uint goal,string memory cname,string memory description) public{\r\n        address Fund = address(new Fund(goal,msg.sender,cname,description));\r\n        activeFunds.push(Fund);\r\n    }\r\n\r\n    function getActiveFunds() public view returns(address [] memory){\r\n        return activeFunds;\r\n    }\r\n}\r\n\r\n\r\ncontract Fund {\r\n    \r\n    address payable public createrAddress;\r\n    string public createrName;\r\n    \r\n    uint public goal;\r\n    string public description;\r\n    \r\n    uint public totalContribution;\r\n    uint public currentBalance;\r\n    uint public totalContributors;\r\n   \r\n    contributerDetails [] public donators;\r\n    \r\n    struct contributerDetails {\r\n        string contributorName;\r\n        uint contributedAmount;\r\n    }\r\n    \r\n    // mapping(address => address) public checkaddress;\r\n    // mapping(address => bool) public Checknew;\r\n    modifier restricted(){\r\n        require(createrAddress == msg.sender,\"This function can be called only by Owner.\");\r\n        _;\r\n    }\r\n\r\n    constructor (uint amount,address creater,string memory cname,string memory desc) public{\r\n        createrAddress = payable(creater);\r\n        goal = amount;\r\n        createrName =  cname;\r\n        description = desc;\r\n        currentBalance= address(this).balance;\r\n    }\r\n    \r\n    function donate(string memory name) public payable{\r\n        require(msg.value >= 100,\"Minimum contribution is 100 Wei\");\r\n        totalContribution = totalContribution + msg.value;\r\n        currentBalance= address(this).balance;\r\n        contributerDetails memory newContibutor= contributerDetails({\r\n            contributorName : name,\r\n            contributedAmount : msg.value\r\n        });\r\n        donators.push(newContibutor);\r\n        //Checknew[msg.sender]=true;\r\n        totalContributors++;\r\n    }\r\n    \r\n    function checkout(uint value) public restricted{\r\n        require(address(this).balance>=value,\"Requested amount is more than current balance.\");\r\n        createrAddress.transfer(value);\r\n        currentBalance = address(this).balance;\r\n    }\r\n    function getDetails() public view returns(\r\n      uint,uint,uint,address,string memory,string memory\r\n      ) {\r\n      return(\r\n        goal,\r\n        totalContributors,\r\n        address(this).balance,\r\n        createrAddress,\r\n        description,\r\n        createrName\r\n        );\r\n    }\r\n    \r\n    function getDonaterDetails(uint index) public view returns(\r\n        string memory,uint){\r\n            return(\r\n                donators[index].contributorName,\r\n                donators[index].contributedAmount\r\n                );\r\n        }\r\n}\r\n",
  "sourcePath": "C:\\Users\\DELL\\fundme\\contracts\\Fundme.sol",
  "compiler": {
    "name": "solc",
    "version": "0.6.8+commit.0bbfe453.Emscripten.clang"
  },
  "schemaVersion": "3.2.0",
  "updatedAt": "2020-06-06T13:16:40.056Z",
  "devdoc": {
    "methods": {}
  },
  "userdoc": {
    "methods": {}
  }
}